:020000040800F2
:10000000705E01209D01000883550008ED34000852
:1000100081550008ED090008E58600080000000091
:10002000000000000000000000000000616A0008FD
:10003000AD0A000800000000FF5600086D6A0008C5
:10004000B7010008B7010008B7010008B7010008B0
:10005000B7010008B7010008AF0A0008B70100089F
:10006000B7010008B7010008B7010008B701000890
:10007000B7010008B7010008B7010008F10900083E
:10008000B7010008B7010008B7010008B701000870
:10009000B7010008B7010008B7010008B701000860
:1000A000B7010008B7010008B7010008B701000850
:1000B000B7010008B7010008B7010008B701000840
:1000C000B7010008B7010008B7010008B701000830
:1000D000B7010008B7010008B7010008B701000820
:1000E000B7010008B7010008B7010008B701000810
:1000F000B7010008B7010008B7010008B701000800
:10010000B7010008B7010008B7010008B7010008EF
:10011000B7010008B7010008B7010008B7010008DF
:10012000B7010008B7010008B7010008FD09000881
:10013000B7010008B7010008B7010008B7010008BF
:10014000B7010008B7010008B7010008855500088D
:10015000B7010008B7010008B7010008B70100089F
:10016000B7010008B7010008B7010008B70100088F
:10017000B7010008B7010008B7010008000000003F
:10018000B7010008B7010008DFF80CD000F094FABE
:1001900000480047E9A90008705E01200648804732
:1001A00006480047FEE7FEE7FEE7FEE7FEE7FEE75C
:1001B000FEE7FEE7FEE7FEE7056B000889010008A1
:1001C0002DE9F05F0546002092469B46884606468C
:1001D000814640241BE0284641464746224600F01F
:1001E0009CF853465A46C01A914110D311461846FE
:1001F000224600F083F82D1A67EB01084F4622468D
:100200000120002100F07AF817EB00094E41201E72
:10021000A4F10104DFDC484631462A464346BDE8E6
:10022000F09F10B5431A934209D28318881803E04F
:1002300010F8011D03F8011D521EF9D210BD40EA4D
:1002400001039B0703D009E008C9121F08C0042A54
:10025000FAD203E011F8013B00F8013B521EF9D23B
:1002600010BDD2B201E000F8012B491EFBD270474D
:100270000022F6E710B513460A4604461946FFF772
:10028000F0FF204610BD0246C9B200E0401C0378D2
:10029000002BFBD102E003788B4203D0401E90423A
:1002A000F9D2002070472DE9F0410E4605460024A2
:1002B00000E0641C285D00F040F80746305D00F067
:1002C0003CF8381A02D1295D0029F2D1BDE8F0814D
:1002D00030B50B46014600202022012409E021FA16
:1002E00002F59D4205D303FA02F5491B04FA02F513
:1002F0002844151EA2F10102F1DC30BD202A04DBE6
:10030000203A00FA02F1002070479140C2F1200328
:1003100020FA03F3194390407047202A04DB203A67
:1003200021FA02F00021704721FA02F3D040C2F115
:1003300020029140084319467047A0F14101192954
:1003400000D8203070472DE9FE4F804681EA030037
:10035000C00F0C46009021F0004123F00045B8EB9F
:100360000200A94105D24046214690461C460B4654
:10037000024623F00040104347D0270DC7F30A0080
:10038000C3F30A510290401A019040286BDAC3F37C
:10039000130040F4801B0098924620B10023D2EB5A
:1003A000030A63EB0B0B01985946C0F1400250461B
:1003B000FFF7A4FF06460D4650465946019A00F045
:1003C0008DF910EB08006141002487EA115284EA9C
:1003D000E7731A4340D0009A62B3019A012A4FEAA8
:1003E000075215DC001B61EB02014FF0004202EAEC
:1003F0000752CDE90042001C41F5801132462B46E0
:1004000000F08DF903B0BDE8F08F40462146F9E7D2
:10041000001B61EB0201001C41F5801300185B41D9
:100420002018A2F5001747EB030140EAD570B61972
:100430006D4111E06D084FEA360645EAC0754FEA96
:100440000752001B61EB0201001C41F580114908B5
:100450004FEA30000019514132462B4603B0BDE847
:10046000F04F00F04DB90098012240000023D0EB7E
:10047000020263EBE073009821464FEAE074B8EBA8
:10048000000061EB0401E9E783F000435BE781F0E2
:10049000004158E72DE9FE4F81EA030404F00044CF
:1004A00021F0004100944FF0000B23F0004350EA8C
:1004B00001045ED052EA03045BD0C3F30A54C1F3D3
:1004C0000A552C44A4F2F3340194A0FB0254C1F366
:1004D000130141F48011C3F3130343F4801301FBB0
:1004E000024400FB034E840A970A44EA815447EA17
:1004F0008357A4FB076802958D0A05FB07854FEA21
:10050000932C04FB0C542705029D4FEA065847EA3A
:100510001637B5EB08056EEB070C870E920E47EA0F
:10052000811742EA8312A7FB0201B6EB0B0164EBD1
:1005300000042B0D43EA0C335E1844EB1C50DA46E2
:100540005146E7FB0201C5F313044FEA0B3343EABC
:1005500014534FEA0432019C43EA0603A4F10C044D
:100560000294009CCDE900B400F0D9F803B0BDE8D6
:10057000F08F00200146F9E72DE9F04D81EA0304F0
:1005800004F0004B21F0004514464FF0000A23F020
:10059000004150EA050220D054EA01021DD0C5F303
:1005A0000A570246C5F31303C1F31300C1F30A56F9
:1005B00040F4801543F48013A7EB0608101BD646C1
:1005C00008F2FD3873EB050002D308F1010801E0E1
:1005D00092185B41B8F1000F03DA00200146BDE834
:1005E000F08D00204FF48011064684460EE0171B64
:1005F00073EB050705D3121B63EB050306434CEAB7
:10060000010C49084FEA300092185B4150EA01079B
:10061000EDD152EA030012D082EA040083EA050118
:10062000084305D0101BAB4106D20122002306E08F
:1006300000224FF0004302E06FF0010253101AEB6A
:1006400006004CEB085110EB0A0041EB0B01BDE832
:10065000F04D00F055B8C1F30A52C1F3130140F256
:10066000FF3341F480119A4202DA002001467047BC
:1006700040F233439A42A2F2334202DC5242FFF785
:100680004CBEFFF73BBE000030B5041E71F1000404
:1006900004DB4FF00044404264EB0101141E73F18F
:1006A000000405DB1C464FF00043524263EB040399
:1006B000994208BF904230BD064C074D06E0E06805
:1006C00040F0010394E8070098471034AC42F6D399
:1006D000FFF75EFDC8860308E8860308202A06DBCC
:1006E000CB17203A41FA02F043EAE07306E041FA00
:1006F00002F3D040C2F120029140084319467047EE
:1007000010B5141E73F1000408DA401C41F1000119
:1007100092185B411A4301D120F0010010BD2DE970
:10072000F04D92469B4611B1B1FA81F202E0B0FA67
:1007300080F220329046FFF7E1FD04460F4640EA82
:100740000A0041EA0B0153465A46084313D01146AA
:1007500053EA010019D0C8F140025046FFF7DDFD11
:1007600005460E46504659464246FFF7C7FD084328
:1007700005D0012004E020463946BDE8F08D002078
:10078000054346EAE0762C4337430A986305E40ABA
:10079000A0EB08000022FD0A44EA47540A3002D5C3
:1007A00000200146E9E7010510196941DDE9084526
:1007B00000196941BDE8F04DA2E770B58C1810F83A
:1007C000015B15F0070301D110F8013B2A1106D196
:1007D00010F8012B03E010F8016B01F8016B5B1EB0
:1007E000F9D12B0705D40023521E0DD401F8013B8B
:1007F000FAE710F8013BCB1A921C03E013F8015BF7
:1008000001F8015B521EF9D5A142D8D3002070BD7A
:10081000464910B54A6822F440324A604A68436843
:100820001A434A6001684A6822F480724A6001688B
:100830004A68036942EA03224A6001684A6822F072
:1008400040724A6001684A6883681A434A600168D6
:100850008A6822F400628A6001688A68C3681A4361
:100860008A60816A6FF07062D14201688A6822F002
:1008700070628A6001688A680CD0836A1A438A6051
:1008800001688A6822F040528A6001688A68C36AF7
:100890001A4301E022F040528A6001688A6822F01F
:1008A00002028A6001688A68037E42EA43028A6023
:1008B00090F82010002901684A680FD042F40062C5
:1008C0004A6001684A6822F460424A6001684A68E6
:1008D000174C436A04EB43331A4301E022F40062ED
:1008E0004A600168CA6A22F47002CA620168CA6A70
:1008F000838B104C04EB03531A43CA6201688A6865
:1009000022F400728A6001688A6890F8303042EA06
:1009100043228A6001688A6822F480628A600168E2
:100920008A68406942EA8020886010BD0023014047
:1009300000E0FFFF0000F0FF10B50124082103488C
:1009400000F074FC00B10024204610BD000C0240F1
:100950000146014802F048B97804002010B5044867
:1009600002F054F9042801D0012010BD002010BD70
:100970007804002010B500F00BF8012801D0012008
:1009800010BDBDE81040014802F056B978040020BF
:1009900008B501208DF80000FFF7CEFF10B9002048
:1009A0008DF800009DF8000008BD000038B5002457
:1009B000009313460A460146034802F005FA00B1C7
:1009C0000124204638BD00007804002038B50024FA
:1009D000009313460A460146034802F0E5FA00B1C7
:1009E0000124204638BD000078040020FEE7000006
:1009F000014800F085B9000018040020014800F00B
:100A00007FB90000FC04002001681823CAB2103A24
:100A1000B2FBF3F2054B6FF30901032A9B5CC3653C
:100A200000D9091D81650846704700005EBB0008BB
:100A300010B5014600208B698A6A4FF0C07453B12B
:100A4000B3F5005F15D072B1012A0CD0022A0AD08A
:100A5000032A09D104E01AB1012A06D0022A03D1DF
:100A6000C96AC90100D5012010BDC96AA142FAD0E6
:100A700010BD002AF7D0012AF2D0022AF3D0032AAF
:100A8000F3D010BD30B50468256825F480252560B5
:100A9000046863608368402B036803D09960006832
:100AA000C26030BD9A600068C16030BD70470120EF
:100AB00000F0B8BA72B6FEE7002200F001B80000FC
:100AC00030B50E4B054601205C7A002C14D1587AC3
:100AD0001C54587A03EB800045605D7A03F10800EE
:100AE0002A54587A421C5A72303008703A204870A2
:100AF0002F208870CC70002030BD000054060020EC
:100B000078B50024009490F83C20012A19D00122E5
:100B100080F83C200A6807230568092A13D9EE6883
:100B20000A3A02EB420293409E43EE600B788A68D9
:100B30000A3B03EB43039A400368DD682A43DA600B
:100B400010E0022078BD2E6902EB420293409E43E2
:100B50002E610B788A6803EB43039A4003681D6992
:100B60002A431A614A681F23072A13D205686E6B4D
:100B7000521E02EB820293409E436E630B790A88F9
:100B80005B1E92B203EB83039A4003685D6B2A43BA
:100B90005A6327E005680D2A12D22E6BD21F02EB92
:100BA000820293409E432E630B790A88DB1F92B228
:100BB00003EB83039A4003681D6B2A431A6311E019
:100BC000EE6A0D3A02EB820293409E43EE620B798D
:100BD0000A880D3B92B203EB83039A400368DD6AF7
:100BE0002A43DA62164B0568144A9D4206D10D6805
:100BF000122D03D1556845F48005556005689D4266
:100C000018D10B68102B01D0112B13D1536843F46A
:100C100000035360096810290CD10A490A4A09687F
:100C2000B1FBF2F101EB8101490000E0491E0091A6
:100C30000029FBD180F83C40002078BD0023014012
:100C4000002001400C00002040420F0070B504005D
:100C50004FF0000503D0206C002610B107E0012002
:100C600070BD204600F01CF8666484F83C60206C7F
:100C7000C00610D4206C20F4885040F0020020649C
:100C80002046FFF7C5FD6664206C20F0020040F0AE
:100C90000100206400E0012584F83C60284670BD16
:100CA00010B586B0044614216846FFF7E1FA1149F1
:100CB000206888421CD110480021026842F48072EA
:100CC0000260006800F4807005900B4814380268D8
:100CD00042F001020260006800F00100059002206D
:100CE00000900320CDE901016946044800F0A6F90F
:100CF00006B010BD00200140443802400000024010
:100D00002DE9F84304464FF00009CDF80090634800
:100D10004FF41651A56D0068B0FBF1F72E6894F8FA
:100D20005C10082000FA01F131420FD021680A68F6
:100D300052070BD50A6822F004020A6094F85C108E
:100D40008840A860606D40F00100606594F85C1018
:100D50004FF0010808FA01F0304208D021684969D3
:100D6000090604D5A860606D40F00200606594F843
:100D70005C1004208840304208D021680968890747
:100D800004D5A860606D40F00400606594F85C10C4
:100D900010208840304218D021680968090714D50E
:100DA000A86020680168490304D50068000308D5DD
:100DB000A16C07E00168C90503D4016821F00801AE
:100DC0000160216C09B12046884794F85C1020200E
:100DD0008840304231D021680968C9062DD5A86005
:100DE00094F8350005282068016806D0490347D5E6
:100DF000006800031DD4616C1CE021F01601016045
:100E00002068416921F080014161206C08B9A06C23
:100E100020B12068016821F00801016094F85C109D
:100E20003F208840A86084F8358084F83490216D94
:100E30001FE0E16B09B120468847606D00282BD088
:100E4000606DC00714D0052084F835002068016863
:100E500021F0010101600098401C0090B84203D8C5
:100E600020680068C007F6D184F8358084F8349093
:100E7000E16C002910D001B02046BDE8F0430847DE
:100E80000168C905D5D4016821F01001016084F81A
:100E9000358084F83490CCE7BDE8F8830C0000205E
:100EA0002DE9F041044600F0D3F906465CB102207A
:100EB00084F83500002584F834502068016821F05A
:100EC000010101600DE00120BDE8F08100F0C0F9F2
:100ED000801B052805D920206065032084F8350093
:100EE000F2E720680068C007F0D122681168204846
:100EF0000140D4E901031843D4E9033633431843CE
:100F000063691843A3691843E3691843236A1843C4
:100F10000843616A042903D1D4E90B131943084338
:100F2000106020684069666A20F0070130460E4371
:100F3000012704280CD1A06A0643E06A40B120468C
:100F4000FFF776FD20B14020606584F83570BAE780
:100F5000206846612046FFF757FD94F85C203F214A
:100F600091408160656584F835700020ACE7000031
:100F70003F8010F02DE9F0410446866D90F8340072
:100F8000002501280DD0012084F8340094F8357034
:100F90000020012F07D084F8340002252846BDE840
:100FA000F0810220FBE7022784F835706065204657
:100FB000FFF768FD94F85C103F208840B06020681F
:100FC000016841F016010160206C20B120680168C1
:100FD00041F0080101602068016841F001010160F1
:100FE000DCE7000070B5044600F032F90546601CED
:100FF00002D004480078044400F02AF9401BA042C3
:10100000FAD370BD00000020012805D10349887083
:101010000421034800F00FB97047000020000020B1
:1010200000040240044910B50A68024202D0086078
:10103000FFF7EAFF10BD0000143C01402DE9F84F16
:10104000DFF8BCA10022012503264FF00F090AF1A9
:10105000040BAAF1040E00BF0B6805FA02F423404A
:10106000A34270D10F7907F00307012F01D0022F9F
:1010700016D187684FEA420806FA08FC27EA0C07EF
:10108000D1F80CC00CFA08FC4CEA070CC0F808C0F8
:101090004768A7430C79C4F3001494403C43446070
:1010A0000C79E443A4070AD0C4684FEA420C06FA5C
:1010B0000CF7BC438F6807FA0CF72743C7600C791D
:1010C00004F00304022C12D1D40800EB840CDCF8E9
:1010D00020405707FF0E09FA07F824EA0804D1F860
:1010E000108008FA07F848EA0408CCF82080046861
:1010F0004FEA420C06FA0CF7BC430F7907F00307DE
:1011000007FA0CF7274307604C6814F4403F70D08F
:101110003C4C276847F480472760246822F0030787
:1011200004F480440094384C07EB040CDCF80848C5
:1011300097074FEA177809FA08F7BC43334FB842CC
:1011400002D1002724E054E0314FB84201D10127F9
:101150001EE0304FB84201D1022719E02E4FB842AD
:1011600001D1032714E02D4FB84201D104270FE02D
:101170002B4FB84201D105270AE02A4FB84201D1CE
:10118000062705E0284FB84201D1072700E00827CD
:1011900007FA08F72743CCF80878DAF800405746F2
:1011A000D1F804C09C435FEACC2C00D51C433C60C2
:1011B000DBF800405F46D1F804C09C435FEA8C2C0A
:1011C00000D51C433C60DEF800407746D1F804C0EF
:1011D0009C435FEA8C3C00D51C433C60084F083FB1
:1011E0003C68D1F804C09C435FEACC3C00D51C436A
:1011F0003C60521C102AFFF42FAFBDE8F88F0000AE
:10120000083C0140443802400030014000000240E8
:101210000004024000080240000C0240001002409E
:101220000014024000180240001C024000690840FF
:1012300000D001207047426921EA02030A4043EAD4
:101240000241816170470AB1816170470904FBE77F
:101250000148806870470000000000202DE9FF4130
:1012600004460068816800917749784E4FF0402726
:10127000884201D1324600E03A46926801924068C5
:101280008846029001D1304600E03846406803901D
:1012900060684FF00105B0F5007F1CD0D8B1900711
:1012A00005D50398000602D5204602F051F90098B2
:1012B000C0070FD0029840067FD521682046CA6833
:1012C000E16A8B1CE3620A80618E491E6186618E31
:1012D000002967D071E00098800719D502980006B0
:1012E00016D5616A20468A1C626222680988D1602C
:1012F000618D491E6185618D51B901684A6822F08E
:10130000A0024A60418E19B980F8415000F0A0F85F
:101310000198C00705D00398400602D5204602F088
:10132000E7F80198400622D5039880061FD521686A
:10133000414501D1304600E03846406820F0600168
:1013400001D1304600E0384641602068416821F014
:10135000A00141602068C1688068019084F8415014
:10136000606C40F002006064204600F072F8009863
:10137000000767D50298800664D52068416821F08F
:10138000A00141602168414501D1304600E0384666
:10139000406820F0600000D03E46706020688068A1
:1013A000009043E001684A6822F060024A60418D83
:1013B00019B980F8415000F04BF8009840061ED54E
:1013C000029880061BD52068416821F060014160C9
:1013D0002168414501D1304600E03846406820F0A0
:1013E000A00101D1304600E03846416084F8415008
:1013F000606C40F002006064204600F02AF801981A
:1014000000071FD5039880061CD52168414501D1EE
:10141000304600E03846406820F0A00000D03E464C
:1014200070602068416821F06001416084F841509B
:10143000606C40F00400606404B02046BDE8F041F8
:1014400000F007B8BDE8FF810038004000340040DC
:10145000704770472DE9F047040005D094F841002B
:101460004FF0000818B109E00120BDE8F08784F8CA
:10147000408051486063204600F0A6F8022684F8B8
:1014800041602068C16940F6BF77B943C1612068F7
:10149000066260694FF4007902282FD0E06870B1CD
:1014A0002025A068202800D86D00012000F05CFFF6
:1014B000216949451FD1E16819B1A90002E0102551
:1014C000EFE7E900B0FBF1F000EB8000616940005C
:1014D000B0FBF1F0401D0A21B0FBF1F000F001017A
:1014E000401A40080902821EFE2A09D3606C40F0AF
:1014F00010006064B8E7B0FBF5F0E5E702200021DA
:1015000022690843024320680262D4E901010843CA
:10151000A269E168114308432168CA69BA431043CC
:1015200040F40060C861206A01283AD12348606312
:1015300023482168234A4FF04023814201D11146BC
:1015400000E01946C96921EA070101D1154600E00A
:101550001D46E9612168814201D1114600E019462A
:101560000E622568854201D1114600E01946C9691D
:101570008EB2616849451BD0D1B100212789B4F8EA
:101580000CC047EA0C07B4F818C04CEA010C47EA53
:101590000C07B9B2314341F40061854200D01A46CC
:1015A000D161C4F84480012084F8410000205CE748
:1015B0004FF48071E2E70000073600085D12000872
:1015C00000380040003400402DE9F0418AB0064662
:1015D00014216846FEF74CFE0025059506950795F3
:1015E00008952C493068884251D101200590C020CF
:1015F0000224CDE9060405A800F0E6FE08B1FFF7D5
:1016000059FA2548016841F4804101600068224987
:1016100000F4804010390990086840F00400086028
:10162000086800F004000990086840F002000860B3
:101630000868032700F00200099048204FF00508D1
:101640008DE8B10169461548FFF7F8FC4FF4A0504A
:101650008DE8B10169461248FFF7F0FC124C1148C1
:10166000C4E900054020C4E90205000120614000F2
:1016700060618000C4E906050001C4E90805204650
:10168000FFF70EFC08B1FFF715FAB463A6630AB0C2
:10169000BDE8F081003800404038024000080240B8
:1016A00000040240706002401804002070470000EF
:1016B00070B5044629B122B194F84100012833D114
:1016C00001E0012070BD94F8400001282CD00126D3
:1016D00084F84060032084F841000025656461625D
:1016E0002068C06900F0070003281FD005281DD01E
:1016F00022856285A16B1B480864A16B1A48C863E8
:10170000A16B1A48C864238D2268616A0C32A06BF1
:10171000FFF730FC88B154F8440F40F0080044F85B
:10172000040966702570CCE7022070BD4FF6FF708B
:1017300000EA420020856085DCE784F8405020689C
:101740004168890703D4416841F002014160206883
:10175000C169490503D4C16941F48061C1610020B8
:1017600070BD0000FD350008D9350008B13500080E
:1017700070B5104900250C1F20780D54207880F09A
:10178000010020702078095C89B10B494FF4106288
:1017900000EBC000896892FBF1F251438AB207491D
:1017A00001EB40210648FFF783FF657070BD012003
:1017B000607070BD240000206C4C0020600E002082
:1017C000D00300207047000002488168027811446D
:1017D00081607047000000200B4810B5016841F49B
:1017E00000710160016841F480610160016841F4A9
:1017F00080710160032000F06FF80F2000F006F800
:1018000000F024F8002010BD003C024070B50D4DE2
:1018100004464FF47A712878B1FBF0F00A49096860
:10182000B1FBF0F001F098FC48B9102C07D200226F
:101830002146501E00F030F800206C6070BD012081
:1018400070BD0000000000200C0000200A4808B510
:10185000016841F480410160006800F4804000901C
:101860000548001F016841F080510160006800F0E8
:101870008050009008BD000044380240002809DB79
:1018800000F01F02012191404009800000F1E0209A
:10189000C0F8001170470000F0B40E4B1B680C46F6
:1018A000C3F30223C3F10705042D00D90425191D34
:1018B000072901D2002300E0DB1E012606FA05F10C
:1018C000491E214099409E40761E16403143F0BC8F
:1018D00006F056BF0CED00E0064900F0070208686C
:1018E0004FF6FF03184040EA0220034A1043086005
:1018F000704700000CED00E00000FA05704700683A
:10190000416200207047F0B50368586A39B19C6A9B
:101910004FF4827600EB144400204D1E0AE040EAAA
:10192000024098620FE006EB8007DF59401C04EB91
:101930001744C0B2A842F6D344EA02404FF4807282
:1019400002EB810158500020F0BDD0F8E00405F012
:10195000C2BC01EBC10200EB8202D0F8E004126AC3
:1019600005F017BC01EBC10200EB8202D0F8E004E5
:10197000D2F8602205F068BCD0F8E00405F0ADBCF8
:101980000A0601F00F0101EBC10100EB810101D555
:10199000143101E001F51571006806F0F1BC70B575
:1019A00004460B0601F00F0000EBC00104EB8101BF
:1019B0004FF001024FF0000502D54A75143103E0E3
:1019C00081F8555201F51571087094F894040128B6
:1019D00008D084F89424206806F0ECF984F8945434
:1019E000002070BD022070BD70B5044601F00F00EC
:1019F0002279904201D9012070BD0B0601F00F0140
:101A000001EBC10104EB81014FF001024FF0000531
:101A100002D54A75143103E081F8555201F515716C
:101A20008D70087094F89404012808D084F89424E8
:101A3000206806F031FB84F89454002070BD022029
:101A400070BD10B5044690F8940401280AD0012016
:101A500084F89404080607D501F00F01206806F009
:101A600000FD04E0022010BD206806F0DEFC00202E
:101A700084F8940410BD01F00F0101EBC10100EBEB
:101A80008100D0F8680270472DE9F04104460F0646
:101A900001F00F0000EBC00104EB81014FF00106E3
:101AA0004FF0000502D54E75143103E081F8555210
:101AB00001F51571C2F30A0208708A600B714A7849
:101AC00002B14883022B00D14D7194F8940401288F
:101AD00009D084F89464206806F0BEF8284684F89B
:101AE0009454BDE8F0810220FBE710B501F00F042B
:101AF00004EBC40100EB8101C1E998230023C1F884
:101B0000683281F8553281F85442837901F51571B4
:101B1000012B00D1CA618279006806F015FB002014
:101B200010BD70B504460D4601F00F0021798842C2
:101B300001D9012070BD29064FF000064FF00102C7
:101B400006D500EBC00104EB81014A75143107E0B2
:101B500005EBC50104EB810181F8556201F51571B2
:101B60008A70087094F89404012807D084F89424AB
:101B7000206806F0BDFA280702D007E0022070BDF9
:101B8000A17904F29C42206806F05AFA84F8946421
:101B9000002070BD10B501F00F0404EBC40100EB90
:101BA0008101C1E9082300238B6201234B7501F8F1
:101BB000144F8379012B00D1CA618279006806F045
:101BC000C3FA002010BD00002DE9FC5F0568044643
:101BD000284606F071FC00287DD1206806F098FCAC
:101BE000002878D0D5F80808C0F30D20C4F8D40434
:101BF000206806F08DFC800704D52068416901F05B
:101C000002014161206806F083FCC10604F29C4099
:101C1000009034D52068816921F0100181612F6A1C
:101C200007F00F0000EBC00004EB8006C7F3434051
:101C300006F51576022802D0062811D01AE047F6DC
:101C4000F070074216D0C7F30A1217462846F1680B
:101C500006F062FCF0683844F0607069384408E0CF
:101C600008222846009906F057FC7069C7F30A114C
:101C7000084470612068816941F010018161206829
:101C800006F046FC00034FF0080B4FF0000A4FF03F
:101C900001097CD50026206806F019FC074674E08F
:101CA000F80770D0F1B2206806F02AFC8046C00721
:101CB00007D005EB4611C1F8089B3146204603F0DA
:101CC00067FC5FEA087024D505EB4611C1F808BB34
:101CD0002068016C00E023E200EB46100191D0F88F
:101CE000082BFB4B994205D9110403D54FF4004151
:101CF000C0F8081B204600F0F6FAF5490198884222
:101D000007D9A079012804D120680121009A06F0A2
:101D100097F95FEAC86004D505EB46111020C1F8B9
:101D2000080B5FEA88701DD56869000605D5D5F8EF
:101D3000040840F48061C5F8041806EBC60004EB03
:101D4000800090F8571200F51570012905D180F830
:101D500003A0F1B2204600F0E9F905EB461102209C
:101D6000C1F8080B5FEA886004D505EB4610202116
:101D7000C0F8081B5FEA884005D505EB46104FF414
:101D80000051C0F8081B7F08761C002F88D12068FE
:101D900006F0BEFB40036ED5206806F091FB0746B7
:101DA000002666E0F80762D0F1B2206806F096FBE4
:101DB0008046C00723D006F00F01D5F8342809FA71
:101DC00001F18A43C5F8342805EB4611C1F808999A
:101DD000A07901280FD106EBC60004EB8000D0E902
:101DE00007211144016236B9606A20B920680121D7
:101DF000009A06F025F9F1B22046FFF7AAFD5FEA46
:101E0000087003D505EB4611C1F808B95FEAC86050
:101E100004D505EB46111020C1F808095FEA4860B7
:101E200004D505EB46104021C0F808195FEA887018
:101E300016D53146284606F014FB06EBC60004EB27
:101E40008000C17D1430012905D180F803A0F1B2D2
:101E5000204600F067F905EB46110220C1F8080999
:101E60005FEA086003D53146204603F0F7FB7F08A0
:101E7000761C002F96D1206806F04AFB002811DA64
:101E8000D5F8040820F00101C5F8041894F8CC0432
:101E900001282BD0204600F00BFA2068416901F0A0
:101EA00000414161206806F033FB00050BD5D5F8F1
:101EB0000808C00702D0204600F03EFA20684169B9
:101EC00001F400614161206806F022FBC00467D57F
:101ED000D5F8040820F00100C5F804081021206896
:101EE00006F0BFFA00214FF67F3220E084F8CCA440
:101EF00000212046FFF702FDCFE700BF05EB4110B0
:101F0000C0F80829D0F8003923F40013C0F80039CC
:101F1000C0F8082BD0F8003B23F40013C0F8003BB6
:101F2000D0F8003B43F00063C0F8003B491C207927
:101F30008842E3D8D5F81C0840F00111C5F81C18F8
:101F4000E07B002828460DD0D0F8840840F00B0133
:101F5000C5F88418D5F8440840F00B012846C5F8A8
:101F600044180DE0D0F8140842F22B010843C5F8DC
:101F70001408D5F8100840F00B012846C5F81018D1
:101F8000D0F8000820F4FE61C5F80018A179206897
:101F9000009A06F055F82068416901F480514161CA
:101FA000206806F0B5FA800415D5206805F094FE87
:101FB000206806F074FAE07100F03EFB0146E27919
:101FC000206806F007FB204600F05CF920684169B4
:101FD00001F400514161206806F09AFA000707D524
:101FE000204600F069F92068416901F0080141616B
:101FF000206806F08DFA000616D5A86920F0800149
:10200000A96101260DE000BF06EBC60004EB8000CD
:1020100090F85702012803D1F1B22046FFF7B0FC37
:10202000761C2079B042EFD8206806F071FAC00221
:102030001FD501264F4614E005EB4610D0F80019D5
:1020400006EBC60004EB8002107E012808D10029AF
:1020500006DAF0B240F08001D7752046FFF790FC19
:10206000761C2079B042E7D82068416901F48011DC
:102070004161206806F04CFA800234D501204A46BE
:1020800029E000BF05EB4011D1F8001B00EBC003B5
:1020900004EB830393F85862012E1BD1002919DA4F
:1020A00094F8D46401F4803106F00106B14211D1F4
:1020B00083F85722A96941F08003AB616969090679
:1020C00008D4D5F8040840F40070C5F8040805E009
:1020D0000A30544F401C21798142D3D8206841698D
:1020E00001F400114161206806F012FA400007D5A2
:1020F0002046FFF72AFC2068416901F080414161D8
:10210000206806F005FA40070AD520684568680788
:1021100002D52046FFF730FC206841682943416022
:10212000BDE8FC9FD0F8E00405F033B9D0F8E00436
:1021300005F043B9F8B5040005D094F89504266875
:10214000002510B106E00120F8BD84F89454204623
:1021500000F056F8032084F89504B6F1A04F00D1A2
:10216000A571206805F066FF207C8DF8000094E8DA
:102170000F0005F0BFFD0226B8BB0021206806F065
:10218000EAF990BB002001270DE000BF00EBC00181
:1021900004EB81014F750875C8850D76CD610D6220
:1021A000401CC0B24D6221798142EFD8002011E07D
:1021B00000EBC00104EB810181F8555281F8540213
:1021C00081F85852C1F85C52C1F86052401CC0B24C
:1021D000C1F8645221798142EAD8207C8DF8000050
:1021E00094E80F0005F068FE10B184F89564AAE742
:1021F000657484F89574206805F050FE0020F8BDE1
:1022000010B586B0044614216846FEF731F8206800
:10221000B0F1A04F2FD119480021026842F001020D
:102220000260006800F0010005904FF4C05000907B
:102230000220CDE90101032003900A2004906946A1
:102240000F48FEF7FBFE0D48001D016841F08001BC
:1022500001600A481430016841F48041016000685F
:10226000002200F48040059011464320FFF714FB44
:102270004320FFF703FB06B010BD000030380240DA
:102280000000024070B50446C079012570B10228F3
:1022900001D0FEF70FFC2946D4F8E00405F0FBF866
:1022A000D4F8E004BDE8704005F0B0B80025F2E7CE
:1022B000D0F8E00405F0D8B8D0F8E00405F0DEB8B6
:1022C00010B5044690F8940401280AD0012084F83F
:1022D00094046174206806F06CF9002084F894047A
:1022E00010BD022010BDD0F8E02400F29C41104641
:1022F00005F0DDB810B50446006894F8941401297F
:1023000009D0012184F89414C168490609D5617B7C
:10231000012902D005E0022010BD816B41F480311B
:102320008163206806F07BF8206805F0A9FD002095
:1023300084F8940410BD000010B50446D0F8E00401
:1023400005F0F7F82068D0F8001E41F00101C0F850
:10235000001EE07A002804D00248016841F006011E
:10236000016010BD10ED00E001460020012908D1F8
:102370001149096811F4000104D0B1F5000F00D132
:102380000E4870470C48001F01680068490200F0C1
:102390003F0001D50A4900E00A49074AB1FBF0F0C5
:1023A0007C321168C1F3881141431068C0F3027098
:1023B000B1FBF0F070470000083802400080BB001D
:1023C00000127A000024F4002DE9F8430546006865
:1023D0004FF00109C1074FF0000601D1400727D592
:1023E000DFF80C81C8F86860FEF732FF0746414C01
:1023F00005E000BFFEF72CFFC01B022857D820685D
:102400000001F7D468688101287A41EA00703949EF
:1024100084310860C8F86890FEF71AFF074604E0A8
:10242000FEF716FFC01B022841D820680001F7D52F
:102430002878800752D52F484030016841F08051FC
:10244000016000682C4C00F080500090206840F43F
:1024500080702060FEF7FCFE074604E0FEF7F8FE01
:10246000C01B022823D82068C005F7D5214C703442
:10247000206810F4407020D0A98901F44071814295
:102480001BD020681D4920F44070C1F800900E60F8
:1024900020602068C00710D0FEF7DAFE064641F241
:1024A000883707E0FEF7D4FE801BB84202D903202C
:1024B000BDE8F88320688007F4D5E9680D48C1F3CA
:1024C00001220830032A0BD0016821F4F8110160C1
:1024D0002068A989C1F30B01084320600020E7E7C9
:1024E0000268074B22F4F81219400A430260EFE732
:1024F000000047420038024000700040400E474252
:10250000FFFCFF0F2DE9F0470E46050065D0DFF810
:102510001481D8F80000F7B200F00700B04207D2EB
:1025200088F80070D8F8000000F00700B04254D1DD
:1025300028683D4C810712D5400703D5206840F438
:10254000E05020602878000703D5206840F4604000
:1025500020602068A96820F0F000084320602878F7
:10256000C0072DD0304968680839012812D00228E8
:1025700013D0032811D00968890700292DDA2168B2
:1025800021F0030101432160FEF762FE814641F222
:10259000883A0EE009688903EFE709688901ECE7EA
:1025A000FEF756FEA0EB0901514502D90320BDE814
:1025B000F0872068696800F00C00B0EB810FEFD164
:1025C000D8F80010404601F00701B14207D9077062
:1025D000006800F00700B04201D00120E7E728784A
:1025E000400705D52068E96820F4E05008432060E2
:1025F0002878000706D52068296920F4604040EA61
:10260000C100206000F03EF82168084AC1F30311C0
:10261000515CC8400649086006480068FFF7F6F8B4
:102620000020C4E7003C02400838024066BB0008B6
:102630000C000020040000200148006870470000E2
:102640000C0000200448054900680968044AC1F3E9
:102650008221515CC84070470C00002008380240BD
:1026600076BB00080448054900680968044AC1F3BC
:102670004231515CC84070470C00002008380240CD
:1026800076BB0008154810B5006810F00C0214481D
:1026900013D04110042A0FD0082A0ED10F4C241F4A
:1026A0002268236802F03F025B0207D52068C0F36E
:1026B0008810A0FB010106E0084610BD2168C1F3A7
:1026C0008811A1FB00010023FDF77AFD2168C1F309
:1026D0000141491C4900B0FBF1F010BD083802402F
:1026E0000024F4002DE9F84F04006ED02078DFF8C4
:1026F0004C93C007A9F104054AD009F10400016810
:10270000C1F38101012908D00068C0F381000228CB
:102710000AD1D9F80000400206D52868800337D5D1
:1027200060680028E1D033E06068B0F5803F10D0E9
:10273000B0F5A02F286810D020F4803028602868D9
:1027400020F4802028606068A8B1FEF781FD06466D
:102750000DE0286840F48030F4E740F480202860E1
:10276000F7E700BFFEF774FD801B642873D8286864
:102770008003F7D50CE0FEF76BFD064605E000BFD1
:10278000FEF766FD801B6428F0D828688003F7D424
:102790002078DFF8AC8280074FF0000A3ED5A748CA
:1027A000001D016811F00C0F08D00068C0F3810013
:1027B00002280BD1D9F80000400207D4286880070E
:1027C00016D5E068012800D112E033E1E068B8B125
:1027D0000120C8F80000FEF73BFD064605E000BFFB
:1027E000FEF736FD801B0228C0D828688007F7D581
:1027F0002868216920F0F80040EAC10028600DE057
:10280000C8F800A0FEF724FD064604E0FEF720FD10
:10281000801B02281FD828688007F7D4207800077B
:1028200022D5864F87486169703771B101210160F7
:10283000FEF70EFD064604E0FEF70AFD801B0228A7
:1028400009D838688007F7D50EE0C0F800A0FEF779
:10285000FFFC064605E082E0FEF7FAFC801B02283A
:102860007DD838688007F7D42078400768D5DFF82E
:10287000CCB100270BF13C0BDBF80000C0000BD4FF
:10288000DBF8001041F08051CBF80010DBF80000BD
:10289000012700F0805000906B4E3068C00510D4C6
:1028A000306840F480703060FEF7D2FC009005E0A4
:1028B000FEF7CEFC0099401A022850D83068C005B7
:1028C000F6D55E4EA0686C3601280FD0052830681A
:1028D00010D020F001003060306820F0040030603B
:1028E000A068B8B1FEF7B4FC00900FE0306840F08B
:1028F0000100F4E740F004003060F7E7FEF7A8FCC1
:102900000099411A41F28830814266D830688007C8
:10291000F4D50EE0FEF79CFC009007E0FEF798FC73
:102920000099411A41F28830814256D830688007B8
:10293000F4D42FB1DBF8001021F08051CBF8001057
:10294000A069C8B33D49091D0968C1F38101022985
:102950004AD00228504607D0C8F8600000E03CE0AA
:10296000FEF776FC04463BE04746C8F86000FEF7F9
:102970006FFC064605E000BFFEF76AFC801B0228DC
:102980002BD828688001F7D4D4E907010843A16A4D
:102990002E4A490802EB0141626A41EA821108436A
:1029A00094F82C1040EA0161C9F800100120386643
:1029B000FEF74EFC044606E03EE000BFFEF748FC92
:1029C000001B022809D828688001F7D534E000BF31
:1029D000FEF73EFC001B022802D90320BDE8F88F59
:1029E00028688001F4D427E00128F7D0D9F8000046
:1029F000E26900F4800191421CD1226A00F03F019B
:102A0000914217D147F6C071626A0140B1EB821F53
:102A100010D1A26A4FF0FF3300F4403103EB5202B1
:102A2000B1EB024F06D194F82C1000F07060B0EBBF
:102A3000016F01D00120D1E70020CFE70438024028
:102A400000004742800E4742007000400000FFFF38
:102A5000F0B5426E920F0A70426EC2F383624A7002
:102A6000426EC2F301628A70426E120CCA70B0F8F4
:102A70006420120A0A7190F864204A71826E120D65
:102A8000CA80826EC2F303420A72B0F86820C2F3B1
:102A9000C0324A72B0F86820C2F380328A72B0F84D
:102AA0006820C2F34032CA72B0F86820C2F3003224
:102AB0000A7300264E73426C4FF40075012462B114
:102AC000012A3AD0026847499163816B41F08051F5
:102AD000816380F834400120F0BDB0F86820C36EF7
:102AE0009205120D42EA93720A61C26EC2F3C2628B
:102AF0000A75C26EC2F302624A75C26EC2F34252D6
:102B00008A75C26EC2F38242CA75C26EC2F3C23205
:102B10000A760A69521C42650B7E03F007039B1C70
:102B20009A4042650B7A03F00F0704FA07F38365B6
:102B30005B0A5A43C0E917250EE090F86820C36E7F
:102B40009206920A42EA13420A610A69521C9202F0
:102B50004265C0E91652056630F86C2FC2F3803228
:102B600001F8192F0288C2F3C6124A70027802F0E7
:102B70007F028A704268D20FCA704268C2F3417203
:102B80000A714268C2F382624A714268C2F3835298
:102B90008A714268C2F34052CA710E724268C2F32F
:102BA00000424A728288C2F3C0328A728288C2F3BB
:102BB0008032CA728288C2F340320A738288C2F3BA
:102BC00000324A738288C2F381228A738288C2F3F8
:102BD0000122CA730079C0F3460008744C740020C7
:102BE000F0BD0000FF054000426C0A60826C4A6044
:102BF000C26C8A60026DCA60426D0A61826D4A6170
:102C0000C26D8A61006EC8610020704770B50446CD
:102C1000B0F8500000250104206803F0A6FB18B1AD
:102C2000A16B0143A16304E00021206803F068FA6E
:102C30000546C5F3432070BD70B504000ED094F86E
:102C40003400002518B92577204600F04FF80320FE
:102C500084F83400204600F00BF808B1012070BD64
:102C6000A5632563012084F83400002070BD0000B6
:102C7000FEB50025044676200095CDE90150294691
:102C80000B460A46206803F03EFA48BB154E46F84C
:102C9000A05F206803F049FA012535600220FEF7A5
:102CA000A1F9204603F0B0FD30B100BF84F83450E4
:102CB000A16B0143A16313E0204603F02DFD002822
:102CC000F4D14FF40071206803F07EFA002808D098
:102CD000226805499163A16B0143A16384F83450D4
:102CE0000120FEBD00802542FF0540002DE9F04394
:102CF00087B0054614216846FDF7BAFA2C492868C2
:102D0000884252D12B480026016841F400610160DD
:102D10000068284900F4006014390590086840F004
:102D200004000860086800F004000590086840F09E
:102D3000080008600868022400F0080005904FF4BD
:102D4000885003274FF00C088DE8D10169461A48D6
:102D5000FEF774F94FF0040901AACDF8009082E85B
:102D6000D00169461548FEF769F9164C14482060F1
:102D70004FF00060C4E901064014C4E9036080001C
:102D800060618000A0612020E0610003C4E90809BF
:102D90008001C4E90A70801020632046FEF780F8A5
:102DA00008B1FDF787FE2C64A56307B0BDE8F0838A
:102DB000002C01404438024000080240000C024050
:102DC00058640240FC0400202DE9F04F87B09B4678
:102DD00016460D460446FEF73BFA00903DB194F8C6
:102DE0003400012807D0A06B40F000500DE0A06B2C
:102DF00040F0006009E00020A063E26D06EB0B01EB
:102E0000914204D9A06B40F00070A0638AE00321D6
:102E100084F834102168C862616C012900D0760200
:102E20004FF0FF3101914FEA4B2102914FF0010821
:102E300003AA902102278146CDF8188082E88202F9
:102E400001A9206803F046F9BBF1010F05D92763FA
:102E50003146206803F012FA05E0C4F830803146AC
:102E6000206803F024FADFF83CA130B12268C2F8F0
:102E700038A0A16B0143A16350E0029E1FE0406BAC
:102E8000000413D596B10027206803F052F905F825
:102E9000010B010A05F8011B010C05F8021B000ECD
:102EA000361F7F1C05F8010C082FEDD3FEF7D0F973
:102EB00001460098091A1098814220D2F8B1206882
:102EC000426B40F22A310A42D9D0416BC90509D57B
:102ED000BBF1010F06D9616C032903D003F076FA28
:102EE0000028C3D12068416B090702D4416B8905D2
:102EF0001AD5C0F838A0A06B40F0080050E0216857
:102F0000C1F838A0A06B40F00040A06384F8348082
:102F1000C4F83090032007B0BDE8F08F84F8348007
:102F2000C4F830900120F6E7416B890705D5C0F859
:102F300038A0A06B40F0020032E0416B89061BD53F
:102F4000C0F838A0A06B40F0200029E003F0F1F8B1
:102F500005F8010B010A05F8011B010C05F8021B1D
:102F6000000E05F8010C361FFEF772F90099411AA0
:102F7000109881420ED268B12068416B890201D558
:102F8000002EE3D1216840F23A50886384F83480FF
:102F90000020C0E72168C1F838A0A06B40F00040D5
:102FA000A063BBE7FF0540002DE9F04F8DB09B46C5
:102FB00016460D460446FEF74BF90A903DB194F8CB
:102FC0003400012807D0A06B40F000500DE0A06B4A
:102FD00040F0006009E00020A063E26D06EB0B0109
:102FE000914204D9A06B40F00070A0637AE0032105
:102FF00084F834102168C862616C012900D076021F
:103000004FF0FF3103914FEA4B2104919021CDE91C
:1030100005104FF00109CDE90709824603A9206890
:1030200003F058F8BBF1010F06D920202063314688
:10303000206803F0E5F905E01020206331462068A0
:1030400003F0F7F95FEA000806D021684148886379
:10305000A06B40EA080074E0049E27E0406B400447
:103060001CD5DEB15FF0000715F8010B009015F8D4
:10307000011B361F40EA0120009015F8021B40EAB0
:103080000140009015F8011C40EA0160009069467B
:10309000206803F061F87F1C082FE5D3FEF7D8F80D
:1030A0000A99411A1698814220D2F8B12068416BE2
:1030B00040F21A321142D1D0416BC90523D5BBF180
:1030C000010F20D9616C03291DD003F07FF9D0B125
:1030D000226820499163A16B0143A16384F8349075
:1030E000C4F830A001200DB0BDE8F08F2168194868
:1030F0008863A06B40EA0800A06384F83490C4F8A9
:1031000030A00320EFE72068416B090702D4416B30
:10311000890505D50F498163A06B40F0080010E0D8
:10312000416B890705D50B498163A06B40F0020014
:1031300007E0416BC90606D506498163A06B40F0E4
:103140001000A063CAE740F23A51816384F83490DA
:103150000020C8E7FF05400010B5401EB0F1807F99
:1031600001D3012010BD4FF0E02460610F216017F2
:1031700005F006FB0020A06107202061002010BDA3
:1031800070B590F83C20012A32D0012480F83C40F0
:10319000022280F83D2003685A689D6822F070067C
:1031A0000A6832435A60134B02689A4214D0B2F153
:1031B000804F11D0104B9A420ED0104B9A420BD038
:1031C0000F4B9A4208D00F4B9A4205D00E4B9A42B1
:1031D00002D00E4B9A4204D1496825F0800319436E
:1031E000916080F83D40002180F83C10084670BD99
:1031F000022070BD000001400004004000080040B3
:10320000000C004000040140004001400018004054
:1032100010B5040003D094F83D0010B107E0012080
:1032200010BD002084F83C00204600F01FF802206A
:1032300084F83D00211D206803F06CFC012084F817
:10324000460084F83E0084F83F0084F8400084F88B
:10325000410084F8420084F8430084F8440084F874
:10326000450084F83D00002010BD000008B500684E
:103270000949884201D1094804E0B0F1804F09D1E1
:103280000648001F016841F001010160006800F07C
:103290000100009008BD00000000014044380240D9
:1032A00070B5044690F83C000025012817D001268F
:1032B00084F83C60022084F83D002068826822F097
:1032C000770222F47F4282600868502838D00DDCF3
:1032D00020284FD005DC90B3102811D14AE00220FD
:1032E00070BD302846D040280AD13BE060282FD05E
:1032F00070280DD0B0F5805F03D0B0F5005F12D01C
:10330000012584F83D60002084F83C00284670BD0B
:10331000CB68D1E90121206803F068FC206881684E
:1033200041F0770109E0CB68D1E90121206803F081
:103330005DFC2068816841F480418160E1E719E02B
:10334000CA684968206803F063FC5021206806E0E1
:10335000CA684968206803F06CFC6021206803F0AB
:103360004FFCCEE7CA684968206803F051FC402151
:103370002068F4E7226801461046F0E770B50400C3
:1033800004D094F84100002510B106E0012070BD82
:1033900084F84050204600F023F8242084F84100AF
:1033A0002068C16821F40051C160204603F07AFC16
:1033B0002068016921F4904101612068416921F090
:1033C0002A0141612068C16841F40051C16065640F
:1033D000202084F8410084F842006563002070BD1D
:1033E00010B586B0044614216846FCF741FF144925
:1033F0002068884221D113480021026842F010025F
:103400000260006800F0100005900E481438026851
:1034100042F001020260006800F0010005904FF4E4
:10342000C06000900220CDE9010103200390072035
:10343000049069460448FDF701FE06B010BD000087
:103440000010014044380240000002402DE9F843DA
:10345000044690F84100984616460D46202802D0B2
:103460000220BDE8F88385B17EB100206064212090
:1034700084F84100FDF7ECFEA6848146E684A0684E
:103480002027B0F5805F02D003E00120E9E7206942
:1034900010B12E4600250EE000260CE080212046CB
:1034A00003F086FCA8B9C6B116F8010B2168486084
:1034B000E08C401EE084E08C4B464FF00002CDF8DB
:1034C00000800028EAD14FF04001204603F070FC54
:1034D00040B184F841700320C3E735F8020BC0F314
:1034E0000800E3E784F841700020BAE7FEE7000037
:1034F00070B515490268154B4FF040248A4201D13E
:103500001A4600E02246D568C26A961CC66215803B
:10351000428E521E4286428E002A14D102688A428E
:1035200001D1194600E02146496821F0600100D030
:1035300023465960418D002905D14FF0010180F8E3
:103540004110FDF785FF70BD003800400034004099
:1035500070B5416A144B8A1C426205680988134A97
:103560004FF040249D4201D1154600E02546E96018
:10357000418D491E4185418D002914D10168994230
:1035800001D1114600E02146496821F0A00100D098
:1035900022465160418E002905D14FF0010180F88B
:1035A0004110FDF755FF70BD003800400034004069
:1035B00010B5806B01684A6822F003024A6000215E
:1035C00041854186012180F84110416C41F008019C
:1035D0004164FDF73EFF10BD10B50146806BC9691F
:1035E00049B901684A6822F002024A600021418517
:1035F000012180F84110FEF7BBF810BD10B5806BBB
:10360000FEF7E0F810BD7CB50168044688680090BC
:1036100094F841000125042834D10098C00718D03F
:103620004868C043400614D4C9682046E26A118045
:10363000E16A891CE162618E491E6186618E41B931
:1036400001684A6822F060024A6080F84150FEF743
:103650002DF80098400615D520684168C9438906B1
:1036600010D4416821F0600141602068C168806821
:10367000019084F84150606C40F002006064204684
:10368000FDF7E7FE94F84100032834D10098800745
:1036900019D521684868C043000614D4626A2046E0
:1036A0001288CA60616A891C6162618D491E6185E8
:1036B000618D41B901684A6822F0A0024A6080F831
:1036C0004150FEF755F80098000714D5206841686E
:1036D000C94389060FD4416821F0A00141602068E8
:1036E0008068009084F84150606C40F00400606491
:1036F0002046FDF7AEFE7CBDF0B500230A24302540
:1037000037261F4611E000BFB4EB107F02D905EB4E
:10371000107C01E006EB107C01F813C001EB430CB8
:1037200000015B1C8CF80170DBB29342ECD3F0BD5E
:103730002DE9FF4F81B01D4692464FF4107B4FF0AC
:10374000000800BF019905FB08F001EB8007002687
:103750004AE000BF0AEB060090F802035FEA0009A6
:103760003DD0B9F1110F19DAA9F101000121814011
:10377000491E002400910EE04946029806F0AAFE78
:103780000099401A00EE100A07EB8400641CB8EEA2
:10379000C00A80ED000AAC42EEDB20E0A9F1110086
:1037A00002248440641CA4EBD401891C029806F016
:1037B00091FE002111E000BFB0FBF4F204FB120205
:1037C000A2EB540200EE102AB0FBF4F0B8EEC00AEF
:1037D00007EB8102491C82ED000AA942ECDB07EBF2
:1037E0008B07CBF1120B761C9AF80003B6EB400F57
:1037F000B0DB08F10108B8F1040FA3DB05B0A800A5
:10380000BDE8F08F2DE9F74F82B01446834611468C
:1038100000F0ACF84FF000080646C246304F45466F
:1038200022E0454507D1B17896F801A0884416F802
:10383000030B2B4947185146039806F04BFE04EB47
:103840004509385C89F8020394F80113A94204DDA4
:103850005146039806F03EFE385C94F8011301B916
:10386000002089F803036D1C94F80003A842D8DCFB
:10387000002514E0661996F8020360B19BF8010078
:10388000C0F34100032804D00221039806F022FE71
:1038900002E0022000E0062086F842036D1C94F846
:1038A0000003B5EB400FE5DB009494F8000304F24D
:1038B0000231430004F24232039800F013F894F806
:1038C0000103002105E000BF04EB4002401C82F828
:1038D000031394F800238242F6DC05B0BDE8F08FB4
:1038E0001C6B03082DE9FF5F9A46884600250E9F52
:1038F00033E09FED1C0A18F8010B38B102994A5DBC
:103900001321D14001F00306361D00E000260424F7
:103910004FF0030B00EB4009264219D00621009816
:1039200006F0D8FD594690FBF1F290FBFBF10BFB42
:1039300012034FF40010C8400B4A00EE100A4B442B
:1039400002EB8302B8EE400A52ED060A20EE800A2E
:103950006410A7EC010ADFD16D1C5545C9DBBDE839
:10396000FF9F000000000000446A03082DE9F041B9
:103970000F46C1788C09032C0BD0012C0BD02025CD
:103980004178C1F34102032A0AD009070BD41B492D
:1039900028E00025F4E7C1F301118D002D1DEFE7AC
:1039A000174920241FE08178C1F3810606F0ACFEA0
:1039B000032C01D0012100E00021C8400F494FF045
:1039C0001B0401F109010BD0382807D2A1F2BE2156
:1039D000022E01D0082406E00C2404E0602802D363
:1039E000012E00D01E2487F80043A54200DC2C469F
:1039F00087F801430846BDE8F08100002C6A0308FF
:103A00007467030870B526E0144D0022C2F111035B
:103A100000EB830400EB820605EB820396ED120AAD
:103A200093ED001AD4ED000AD3ED081A21EE001A26
:103A3000521C082A00EEE11A86ED121A93ED081ABC
:103A400021EE000A93ED001A00EE810A84ED000ACF
:103A5000DCDB4830491E0029D6DC70BDF480030849
:103A6000D0ED000AD0ED062AF6EE004AB0EE600A6C
:103A700090ED021AD0ED041A02EEA40A70EEE22ACA
:103A800071EE810A9FED3E3A90ED082ADFED3D3A56
:103A900020EE833A72EE010A9FED3B4A9FED3D5ABC
:103AA000DFED3A5A60EEA33A71EEC20A9FED3A6A30
:103AB00020EE844A72EE410A30EEA11AF0EE620A5C
:103AC00041EE640ADFED324AB0EE602A71EE220A5E
:103AD000C0ED040A70EE630A90ED051AD0ED031AEA
:103AE00070EE842A70EE430A30EE030A61EEA51AE6
:103AF00070EEA33AD0ED010A30EE443A90ED070A99
:103B000031EE204A64EE244A31EE404A24EE055A52
:103B100030EE804A70EEC10A24EE064A30EEC00A4A
:103B200075EE610A20EE251A34EEE10A70EEE44AE1
:103B300075EE210A30EE440A70EEC41A73EE640A80
:103B4000C0ED000A72EE010AC0ED010A73EEE10A4F
:103B5000C0ED020A72EE800A32EEC00AC0ED030A1E
:103B600080ED050A33EEA10A80ED060A32EE410A25
:103B700080ED070A33EE240A80ED080A7047000042
:103B8000B28F703F7D1B443FD4D0313ED7B35D3FF1
:103B90005C1C7C3F441DAF3EBB8D243F2DE9FE4F96
:103BA0000C4641F608011F4615468346002600EBE9
:103BB000010929E0C6EBC60105EB81026068918826
:103BC00090460844029041F67C5004EB000AC6EB94
:103BD000C60000EB4610204443F61C71CDE900A658
:103BE000134601442246484600F0B6F80298009079
:103BF00006EBC60004EB002042465346214600F681
:103C00007C3000F06FF9761CBE42D3DB0BF5805A96
:103C100004F67C309AF80B28D10607D543F6437199
:103C20004B462A46214400F0FDFC07E00321B1EB9E
:103C3000521F03D14FF4107100F08AFD002686E078
:103C40001F2000909AF80908C0F3C001C0F30010CB
:103C5000084400EB40019AF80A08C0F381000844C8
:103C6000022820D00021287B00B1022000FA01F9AF
:103C7000A87BE0B3A9F10100009006EBC60004EBBD
:103C8000002109EBC90001EBC00101F67C3141F6CE
:103C90001C60019104EB000E687B296801EB000CAD
:103CA000704601991DE00121DDE7002313E000BF0C
:103CB00091ED000A01EB820880ED000A98ED000A00
:103CC00001EBC20880ED010A98ED000A091D80EDA4
:103CD000020A0C305B1C9342EADB01EBC2010CF1DF
:103CE000030C9CF80020002ADFD1714600E006E0BA
:103CF000A0EB0E0020F003020198FCF792FA06EB0D
:103D0000C600019004EB002000F67C30804600994C
:103D1000FFF778FE0198EA7A0BEBC01140464B465C
:103D200000F02EFC002208F14800012100EB810385
:103D3000891C93ED000A1229B1EE400A83ED000AB6
:103D4000F4DB9030921C202AEFDB1C35761CBE423F
:103D5000FFF676AFBDE8FE8F2DE9FF4F81462DEDD2
:103D6000028B8DB0987B1D991C46964600B10120B0
:103D7000627BEAB100221044C0EBC0025748657E66
:103D800000EB820799F80120E07E6D1C120711D527
:103D9000524A21895432515C8A088DF830208DF8BE
:103DA000312001F003018DF832108DF833102DE031
:103DB0000122E0E799F80300C00602D509B101200D
:103DC00000E000202289DFF814A1C24000EB40008F
:103DD00083000DF1300B0AF1640A12E00120032187
:103DE00092FBF0FC03EB01081AF808609CFBF6F864
:103DF00006FB18CC0BF801C07043491EF0D5121A0F
:103E00001B1D002AEADA1F446FF00F00CDE900E025
:103E10003B460CAA02A8109900F0B4FCA07B02AEAD
:103E200010B3C5F1030100201AE0637B3218677DEF
:103E300013F802C08F4067449F54627BA77D93199B
:103E4000421C8F4013F802C067449F54627BE77D99
:103E50009319821C8F4013F802C0C01C67449F5402
:103E6000A27B8242E1DC0CE0207E50B11B4A0020A4
:103E70007C323118175CCB7A401C3B44CB720A2849
:103E8000F7DB99F80300A17A0322B2EB501F01D1AE
:103E9000022000E00020081AD638C0F12C009FED67
:103EA000100A00F035FCB0EE408A00270BE0F05D10
:103EB000B0EE480AA84000F02BFC1C9800EB8700ED
:103EC0007F1C80ED000A607BA17B0844B842EEDCD9
:103ED0000DB0BDEC028BBDE8FF8F0000C06E030883
:103EE000000000452DE9FF4F92B09FEDF70A002139
:103EF0000B911499B1F806B00D681399D1E90042FD
:103F0000D11702EB517104EBE104667814F8021B3F
:103F100006EB012614F8021B01EB062614F8011C1F
:103F200001EB062102F00706B14062F00702BBF187
:103F3000000F7DDD0B9F149EDFF894C33744FE7B9A
:103F4000BF7C0E970B9F7F1C0B97E04F37F91670C5
:103F50000CEB4709DD4F4037BE5D5FEA060E68D0C7
:103F600015F8016B5F4676080296B34500DC3E46C5
:103F70000C96B3EC010A0526CF0E39F917700BE049
:103F8000B140324407F00706C6F1200C21FA0CFCC0
:103F9000ACEBE70C39F91C70002FF1DB3E12B1409D
:103FA00002EB27224FF0000A07F00F060F2E0ED06B
:103FB0004FEAD17CCCF1000C06EB0C18DFF814C3EF
:103FC0000CEB880CDCED100A60EE800A75E0CEF197
:103FD000200621FA06F601FA0EF172440F3606E0C9
:103FE00014F801CB0CFA02FC4CEA0101083A002A51
:103FF000F6DA4FF4807CCDF840C00696812E06DAC2
:10400000DFF8D0C20CEB860CDCED100A46E0B446BB
:10401000B6F5806F07DA4FF0100CCDF840C04FEACC
:10402000C60CCDF818C04FF0400808EA4C0C01E06F
:10403000D5E075E0DDF8188008F03F08A8EB0C0823
:1040400000EE908ADDF8188028F03F08B8EEE01AFC
:10405000E04400EE908ADDF81880F8EEE01AC444DF
:104060004FEAAC18DFF86CC2C1EE210A0CEB880CE9
:104070009CED102ADFED981A9FED981ADDF840C0EC
:1040800000EEA11AF7EE001A40EE811A00EE90CA77
:10409000F8EEE00A22EE211A61EE200A002920EE55
:1040A000801A02DA4FF0FF3C01E04FF0010C00EE05
:1040B00090CAF8EEE00A61EE200A002EC0ED000A78
:1040C00002D000BF4FF0010601FA06F102D04FF016
:1040D000010601E04FF000060AF1010A32444FEAFE
:1040E000271700F10400BAF1020FFFF65DAF04E0FC
:1040F00014F8016B96403143083A002AF8DA0C9E16
:10410000761E0C967FF437AF029FABEB070BBBF12B
:10411000000F64DD0E9E761E0E967FF521AF09E737
:1041200015F8016B5F467608B646F34500DC3E465F
:104130000C96B3EC010A05274FEAD16C09E0B940AF
:104140003A4406F00707C7F1200C21FA0CFCACEB4F
:10415000E60C39F91C60002EF1DB3712B94002EB96
:10416000262200274FEAD17C06F00F0ACCF1000886
:104170000AEB081CDFF85C8108EB8C0CDCED100A04
:10418000BAF1000C60EE800AC0ED000A02D000BF58
:104190004FF0010C01FA0CF102D04FF0010C01E0DC
:1041A0004FF0000C3611001D7F1C6244022FD9DB3A
:1041B00005E000BF14F8016B96403143083A002A2D
:1041C000F8DA0C9E761E0C96B5D1ABEB0E0BBBF15C
:1041D000000F04DD0E9E761E0E96A1D5AAE6CBF149
:1041E0000109149EB67E16B1384F103F01E0374FDB
:1041F0002C3F07EB117636785FEA067C0AD406F08E
:1042000003084FEA011CC8F120082CFA08FC0CEB4B
:10421000E606BE5D06F00707B9403A44139F3F68C3
:10422000E71B02EBC70C1F9FACF1180CBC4560DC10
:10423000B9F1010705D115F8017B7F0859D0B3EC1E
:10424000010A5FEA066C0AD5002902DAF1EE400A9B
:1042500001E0F0EE400A4900C0ED000A521C5FEA9E
:10426000466C0AD5002902DAF1EE400A01E0F0EED0
:10427000400A4900C0ED010A521C7F1E5FEA07098F
:1042800007D115F8017B7F085FEA070931D0B3EC4D
:10429000010AB7060AD5002902DAF1EE400A01E068
:1042A000F0EE400A4900C0ED020A521CF6061CD589
:1042B000002902DAF1EE400A01E0F0EE400A49007E
:1042C000C0ED030A521C10E0000000005A800308F1
:1042D000466F030880670308398E633EABAAAA3F86
:1042E00014F8016B96403143083A002AF8DA10308E
:1042F00077E713981F99416016B0BDE8F08F000072
:10430000DFED0B1AB6EE002A60EEA10AF0EE401ABD
:1043100030EE010A41EE421A80ED010A31EEA00AA8
:1043200080ED000A31EEE00A80ED020A70470000DD
:10433000D7B35D3FF0B590ED0C0AD0ED090A87B018
:10434000044630EE201A90ED060AD0ED030A164618
:104350000D4670EE200A90ED000A03A8B1EE400A67
:10436000FFF7CEFF94ED060AD4ED030A684630EE5F
:10437000601A94ED0C0AD4ED090A70EE600A94ED0F
:104380000F0AFFF7BDFF9DED010A25490020B1EEA0
:10439000400A8DED010A03AA6B4600BF02EB8004C0
:1043A00003EB800C94ED001A01EB8004DCED002A95
:1043B00094ED032AD4ED001A06EB800721EE020AE1
:1043C00021EE211AD7ED000AC0F1020402EEA10A83
:1043D00002EEC21A05EB800E87ED001A01EB84078E
:1043E000C0F1050497ED001A01EB840C05EB840481
:1043F00021EE201ADCED001A401C032800EE611AA1
:104400008EED001A9CED001A61EE200A97ED001A5D
:1044100040EE010AC4ED000AC0DB07B0F0BD0000A9
:104420007C8103082DE9F04F93B09A4691460F46E0
:1044300004460026EB4609AD9AE000BF94ED000A61
:104440000021DC46B1EE400A8DED000A94ED110A20
:104450008DED090A04EB01104A4290ED010AD0EDFE
:10446000020A05EBC2030CEBC10230EE600A491CE4
:10447000E04683ED080A90ED010AD0ED020A042916
:1044800030EE200A82ED010A90ED040AD0ED030A15
:1044900030EE600A83ED070A90ED030AD0ED040ABE
:1044A00030EE200AB1EE400A82ED020AD2DB684605
:1044B000FFF7D6FA09A8FFF7D3FA9DED0A0ADFF84D
:1044C000BCC00020B1EE400A8DED0A0A9DED0C0A39
:1044D0004146B1EE400A8DED0C0A9DED0E0AB1EE9B
:1044E000400A8DED0E0A9DED100AB1EE400A8DEDE9
:1044F000100A00BF01EB800205EB8008D2ED002A14
:104500000CEB800298ED001A92ED092AD2ED001A08
:1045100007EB800322EE820AD3ED000A09EB80024A
:1045200001EE210A62EEA11A41EE421AC3ED001A11
:1045300092ED001AD2ED091A04EB800321EE201A45
:1045400000EE611A83ED001A92ED091A61EE200A5D
:1045500092ED001AC0F1110204EB820240EE010A52
:10456000401C0928C2ED000AC4DB4834761C2437FD
:104570005645FFF663AF13B0BDE8F08F34810308F2
:104580002DE9F04393B016461F000D46044608D0AF
:10459000234AFFF747FF07EBC70004EBC00405EB16
:1045A0008005C7F12003022E0ED0032E36D0002046
:1045B0001B4900EBC00001EBC00213B029462046A6
:1045C000BDE8F043FFF72EBF1E466F460DF1080809
:1045D0001FE0482221466846FBF723FE18222946A1
:1045E0002046FBF71EFE05F11802914604F1180162
:1045F0006846FFF79FFE4A4604F13001381DFFF779
:1046000099FE4A4629464046FFF794FE4834243531
:10461000761E002EDDDC13B0BDE8F0830120C7E775
:10462000948103082DE9F04F89468246517B907BA7
:1046300085B00D1808B1032600E001264FF0FF30C9
:1046400017680490039002900AF510610DF1080BB1
:1046500000204FF0030E21E0002417F800C017E0FF
:1046600001EB840898ED000AB5EEC00AF1EE10FAED
:1046700006D198ED010AB5EEC00AF1EE10FA06D0A7
:1046800090FBFEFC0EFB1C0C4BF82C0002E0A41C63
:10469000A445E5DC3C5C401C01EB8401A842DBDB6B
:1046A000507B78B1DDE90201884200DA08460499BE
:1046B000884203DBDDE90201884200DA0846049003
:1046C0000390029000205C46A5EB060C0FE05978A1
:1046D0000CEB00050907891054F82080890FAF1BE7
:1046E000B84501DA19F8071009F80510401CB04266
:1046F000EDDB92F82400494600F00100CDE900B05E
:104700001268504600F0E2F905B0BDE8F08F0000F5
:1047100030B50E4B4FF08044782801DA014600E0B6
:10472000782101F0030203EB82028D1092ED001A52
:1047300024FA05F200EE902A401A0028F8EE600AEA
:1047400061EE200A20EE800AE6DC30BDB06E030880
:1047500030B5002200F5106411E000BF00EB8203C9
:1047600004EB820593ED000AD5ED000A521C30EEF1
:10477000201A30EE600A83ED001A85ED000A8A42A5
:10478000ECDB30BD2DE9FF4F81B09A4688460546E7
:104790000027DDF83C9039E05FEA097005D5224634
:1047A00041462846FBF73DFD29E00398C05D009097
:1047B00038B1B9F1000F0DDA009901208840401E90
:1047C0000AE021462846FBF753FD21464046FBF709
:1047D0004FFD14E04FF0FF30834600260DE00099B6
:1047E0000E9805F077FE584502D14FF0FF3100E0FA
:1047F000014608F80610A855761CA642EFDB7F1C80
:10480000A04425444FEA4909042F03DA1AF8074067
:10481000002CC1D10020A8706870287005B0BDE8D8
:10482000F08F00002DE9F74F507817460C46C0F383
:10483000C002C0F30011114401EB4102B978002518
:10484000C1F38101A846511801D0012200E00022E5
:10485000A1EB020AFA784FF00309B9EB921F01D1DC
:10486000012600E0022600070BD5760009210098FA
:1048700005F030FE8346F11D009805F02BFE05463D
:1048800006E006F10801009805F024FE20FA06FB78
:10489000F9780320B0EB911F00D12D010C21009875
:1048A00005F018FE80B2A08080440921009805F030
:1048B00011FE80B2E080B0F5907F7DD8082100988D
:1048C00005F008FEA0727878000701D5042100E009
:1048D0000921009805F0FEFD2081CAEBCA0101EB19
:1048E0000A1056494FF000090844206016206073F2
:1048F00084F80E900121009805F0ECFD80B30221B0
:10490000009805F0E7FD10F0FF00E07254D001219F
:10491000009805F0DFFDC0B220730721A174FF21CC
:10492000E174E17A022920D140F60F710D4050B1B7
:1049300043490AEB8A0001EBC00020607878000749
:104940000FD508200EE008203C49A0740AEB8A002D
:10495000B83101EBC000206084F80D90272003E0FF
:1049600019E0062060731E20A0730A21009805F04C
:10497000B1FD4FEA40190321009805F0ABFD6075C9
:104980000321009805F0A6FDA0750321009805F00D
:10499000A1FDE07516E084F80B9084F80C900F21CF
:1049A000009805F097FD81460421009805F092FDDE
:1049B000A0740321009800E039E005F08BFDE0745D
:1049C000FF2020754FEA9920E073C9F3441020744A
:1049D00009F01F0060747878000704D50121009861
:1049E00005F078FD06E02089B0F5FA7F01D30120BB
:1049F00000E0002020760121009805F06BFD607634
:104A00000121009805F066FDA076C5F30330E0763D
:104A10002D011C34761E7FF433AF0098806800EBC4
:104A2000CB010098426802EB0800814203DA4FF0A4
:104A3000FF30BDE8FE8F5846FBE70000786B0308A7
:104A4000706D03082DE9F0470E469046D6E9012126
:104A5000891ACA1701EB527100F580554FEAE10936
:104A6000D5F800181F46B94201DD1C4600E00C468F
:104A700001DD3A4600E00A46A1EB0701002900DC0F
:104A80000021084441F60C01014408F10C00824663
:104A9000FBF7C7FBD6E90010C21700EB527001EB21
:104AA000E00108EB04004A460C30FBF7BAFB04EBCC
:104AB00009025146404604F007FBD5F80008B84209
:104AC00002DB0120BDE8F0870020FBE72DE9F05F65
:104AD00005462DED048B1E4617465878DDF838B094
:104AE0008A46000701D5072000E0402081460024C7
:104AF000B7EE008A56E000BF0320B4FBF0F200FBE3
:104B000012421AF804805BF82200A04240DAC8453D
:104B10003ED2F078800602D5DFED268A01E0F7EE7E
:104B2000008A7078000707D5234800EBC80090ED95
:104B3000009A90ED010A11E008F101000F99400878
:104B4000B0EE489A8840B7EE000AFFF7E1FD5FEA51
:104B5000C87003D0B0EE409AB0EE480A3A5D69EEF4
:104B6000280A20EE280A00200FE000BF05EB800194
:104B700001F5006391ED001A401C61EE001A21EE70
:104B8000201AC3ED401A81ED001A9042EEDB05E0D9
:104B9000F078800602D52846FFF7DAFD385D641C00
:104BA00005EB8005395D0029A6D1BDEC048BBDE87D
:104BB000F09F0000F304B53FBC8003082DE9F84FD7
:104BC000374C606918B1BDE8F84F03F08DBDE2685D
:104BD000DFF8D0804FF0000AB2F5806F16DAA068D7
:104BE000454608EB00014046FBF71BFBC4F808A054
:104BF000E0682B4BC0F50062291820332A4805F0E5
:104C000033F9E168206A0144E16058B12078244F0B
:104C100080F001063F1DB85D234DDFF89090183DF0
:104C200020B123E0BDE8F84F00F0C6B806EBC6019E
:104C300009EB41230095A1681D484144E26806F054
:104C400063FCE06100280BDD2868002808DDA1680E
:104C50000144A160E168081AE0600120B85505E050
:104C6000A068401CA060E068401EE06060780028FA
:104C700014D02078385C002810D0A8684FF4106158
:104C800091FBF0F1484382B2207800EBC00109EBC0
:104C900041210848FCF70CFD84F801A0BDE8F88F1D
:104CA0002000002060060020844C0020600E0020C0
:104CB00060320020D0030020F8B501222FA1304837
:104CC00004F056FF2F4D0122A5F12804206955F864
:104CD00020102D4804F078FFE07020B1BDE8F840C6
:104CE0002AA003F03DBD206955F8200005F0F8FD2D
:104CF000606140B16B462C222949234805F0B4F885
:104D000003F0F2FCF8BD274806F086FD0026A660F9
:104D1000E660FCF79DFA1B4B6062083B4FF40062B3
:104D20001F49194805F0A0F8FCF792FA616A411A88
:104D30001DA003F015FD144D226A183DE2601C4BC6
:104D400017491848009506F0DFFBE0610028D9DD1F
:104D500029680029D6DDA2680A44A260E268511AD7
:104D6000E160084A0121243A1170298941438AB23D
:104D70000F491048FCF79CFC6670F8BD000000006D
:104D8000B44E002048000020844C0020B4F2BFAA9A
:104D9000D2F4C6B5CEC4BCFECAA7B0DC0D0A000072
:104DA000600600206032002025640D0A000000002B
:104DB000600E0020D00300202DE9F843364804F0AF
:104DC000B1FE0A20FCF70EF9344C04F128052069E5
:104DD000A169401C90FBF1F201FB1200206155F823
:104DE000201001222C4804F0EFFEE070002820691A
:104DF00006D055F82010BDE8F84329A003F0B0BC58
:104E000055F8200005F06CFD00250127606158B1C0
:104E10006B462C222649204805F026F8257067703D
:104E200003F062FCBDE8F883224806F0F5FCA560BB
:104E3000E5602570DFF8648008F1040888F8005008
:104E400088F80150677008F11C034FF4006218499C
:104E5000114805F009F8104E226A183EE260164B20
:104E600013491448009606F04FFBE0610028D9DD95
:104E700031680029D6DDA2680A44A260E268511AAE
:104E8000E16088F80070318941438AB20A490B48D1
:104E9000FCF70EFC6570C5E7844C00202000002064
:104EA000B4F2BFAACAA7B0DC3A2025730D0A0000ED
:104EB0006006002060320020600E0020D003002039
:104EC0002DE9F0410546D0F8D40205EB8000D0F87A
:104ED000C042002C1ED094F81C020F4E40B9D4F8EA
:104EE000180228B1607A18B93178284602F00FFB11
:104EF0000A4F2846397802F00AFB607A022809D165
:104F00003978284602F003FB31782846BDE8F041A5
:104F100002F0FDBABDE8F08109010020080100207F
:104F200070B50546D0F8D40205EB8000D0F8C04239
:104F3000002C65D0D4F81402C4F83402D4F8180256
:104F4000C4F838022F480178284602F0DEF91F28FD
:104F50000DD12D49D4F81002884208D194F81D12C1
:104F6000012904D894F81E0208B1102809D994F830
:104F70001D1220230522284600F05FFF02206072E8
:104F800009E004F21F22284600F010FC0028207AD5
:104F900008DA052804D02846BDE87040FFF790BF26
:104FA000012128E002282BD0012829D0032827D06E
:104FB000E668FEB1D5F8D412284605EB810104F16C
:104FC0001002D1F8C01200291AD0D1F81832B34219
:104FD00000D33346D1F83842A41BC1F8384200242C
:104FE00081F83C4204240C7208490978BDE87040FD
:104FF00002F0ACBA00212846BDE8704000F0DCB8F1
:1050000070BD0000090100205553424308010020F3
:1050100010B50446D0F8D40204EB8000D0F8C002EA
:10502000002818D0407A022809D0090613D5012893
:1050300011D02046BDE81040012100F0BDB806485F
:105040000178204602F063FA044801782046BDE862
:10505000104002F05CBA10BD0801002009010020D8
:1050600010B50446D0F8D40204EB8000D0F8C0227A
:10507000002A17D0107A022805D0032801D004286E
:1050800010D1002109E092F81D12204602F21F22E1
:1050900000F08CFB002805DA01212046BDE8104015
:1050A00000F08AB810BD10B50446D0F8D40204EB65
:1050B0008000D0F8C022002A17D0107A80B10128D1
:1050C00013D192F81D12204602F21F2200F06EFB4F
:1050D00000280ADA2046BDE81040012100F06CB833
:1050E0002046BDE81040FFF71BBF10BDD0F8D4121A
:1050F00000EB8100D0F8C002002801D0002101722D
:105100007047000070B50546D0F8D40205EB80006A
:10511000D0F8C042002C24D000202072607284F8A5
:10512000610284F8600284F86202D5F8D40205EBCB
:105130008000D0F8C402016800208847094E284644
:10514000317802F0D9F808480178284602F0D4F8FE
:1051500004F5047231782846BDE870401F2302F040
:105160004CB970BD090100200801002070B505464A
:10517000D0F8D40205EB8000D0F8C042002C16D045
:10518000002020720120607209480178284601F051
:10519000EEFF084E2846317801F0E9FF04F504726D
:1051A00031782846BDE870401F2302F026B970BD53
:1051B000080100200901002070B50546D0F8D4028E
:1051C00005EB8000D0F8C042002C18D00C48C4F881
:1051D000300284F83C12002020720A480D2304F5A6
:1051E0000C720178284602F0B1F9074804F5047200
:1051F0001F2301782846BDE8704002F0FEB870BD5C
:105200005553425308010020090100207FB50024B6
:1052100016480094019402941349039401604FF4DA
:105220008031C0E901140461047680F8204009034C
:10523000C1620125C5614FF0C061C460816280F820
:1052400030404561FBF702FD08B1FBF733FC0095E8
:10525000CDE9015469460548FBF752FC002801D00E
:10526000FBF728FC7FBD00000020014088030020E0
:10527000114808B5016841F400110160016801F4AA
:1052800000110091016841F4800101600068002272
:1052900000F48000009011460F20FCF7FDFA0F206B
:1052A000FCF7ECFA002211463B20FCF7F5FABDE8CA
:1052B00008403B20FCF7E2BA3038024010B5044900
:1052C0000448FBF7F9FB0249491E087010BD0000B5
:1052D0001200002080BB0008F0B587B0142168469A
:1052E000FAF7C6FF31480024016841F0040101606B
:1052F000016801F004010591016841F0800101603D
:10530000016801F080010591016841F0010101602F
:10531000016801F001010591016841F0020101609D
:10532000016801F002010591016841F00801016086
:1053300000681F4E00F00800059000222021304632
:10534000FBF781FF1B4F002204213846FBF77BFF50
:1053500001254FF488100095CDE9010469463046D7
:10536000FBF76CFE20200090CDE9015469463046E1
:105370000394FBF763FE04200090CDE901546946D5
:1053800038460394FBF75AFE0820CDE9000469462D
:1053900009480294FBF752FE002211460620FCF752
:1053A0007BFA0620FCF76AFA07B0F0BD30380240FD
:1053B0000000024000040240000C02400C490D486D
:1053C00010B54A15C0E9001200218160C0E903123E
:1053D0004AF64442C0E90521C1610162FCF73AF88E
:1053E000002803D0BDE81040FBF764BB10BD0000EF
:1053F00000380040D0030020064805490160002124
:1054000041608160C160016141618161704700005C
:10541000002C01407804002010B586B00024194803
:105420000094019402940394049415490594016036
:1054300040F24731C0E9011441F28731C1604FF4B5
:105440000071C0E9041480218161FDF7E1FE08B11B
:10545000FBF730FB4FF48050009069460948FDF798
:105460001FFF08B1FBF726FB049404A90548059427
:10547000FDF786FE002801D0FBF71CFB06B010BD2F
:10548000000001405C05002010B586B000241848DB
:10549000009401940294039404944FF08041059485
:1054A000016040F24731C0E901140121C1604902A5
:1054B000016180218161FDF7ABFE08B1FBF7FAFACB
:1054C0004FF48050009069460948FDF7E9FE08B1A5
:1054D000FBF7F0FA2020CDE9040404A90448FDF705
:1054E0004FFE002801D0FBF7E5FA06B010BD000022
:1054F000A40500200C4810B50A4901604FF4E131C1
:105500004160002181600C22C160C0E90412816108
:10551000C161FDF733FF002803D0BDE81040FBF761
:10552000C9BA10BD00100140EC05002010B50022E2
:105530000F49104801F008FE08B1FBF7BBFA0E490D
:105540000C4802F080F908B1FBF7B4FA0B4909489E
:1055500002F0EAF808B1FBF7ADFA064802F0F6F9F6
:10556000002803D0BDE81040FBF7A4BA10BD00002E
:105570005C00002034520020D0000020AC0000204D
:10558000FEE7FEE70148FCF71FBB0000885900203A
:105590002DE9F04103680D4604461E6C03EB4511EE
:1055A000D1F8080B94F806E04FF400474FF0200CB8
:1055B00004F29C42BEF1010F09D0DFF898E0764575
:1055C00039D1020432D500BFC1F8087B3FE0224B3D
:1055D0005FEA007E04D59E4239D90004F4D436E057
:1055E0005FEA806E02D5C1F808CB30E010F0280FDA
:1055F0002DD19E4201D90004E6D405EBC50004EB91
:105600008000D1F8101BD0F87432C1F31201591A7E
:10561000C0F8681200F51570ADB903691BB1C26816
:105620001144C1600FE0012120680AE080060AD51C
:10563000C1F808CB07E035B9D4F8640218B90021E5
:10564000184602F0FDFCE9B22046FCF78BF9002079
:10565000BDE8F0810A31544F0A30544F2DE9F84F1C
:105660000E4601EBC60100EB810481460568D4E9D2
:1056700009101434884202D90120BDE8F88F081AB5
:10568000A168814200D20846C01C870805EB461875
:105690001BE000BFA0EB010AA068504500D2824683
:1056A0000AF10300870899F8060000901FFA8AF3B0
:1056B000F2B22846E16803F001F8E16801EB0A0064
:1056C000E060616901EB0A006061D8F8180980B2F6
:1056D000B84205D3D4E90401814201D20028D9D1CE
:1056E000D4E90401884208D806F00F01012088405F
:1056F000D5F834188143C5F834180020BDE7704749
:1057000030B5D0F8D4424FF0FF3500EB8404D4F824
:10571000C04244B11A44D4F868329A4205D92123D0
:10572000052200F08AFB284630BD002030BD000075
:1057300070B50446D0F8D402134604EB80024FF053
:10574000FF35D2F8C00280B1D0F818627EB15E7821
:10575000F60716D0997871B180290FD090F81D12F4
:1057600024230522204600F068FB284670BD90F8EF
:105770001D122023F5E706220A490FE008220A49F4
:105780000CE0D2F8C42201EBC1011B79D26902EB13
:1057900081010A79521D934200D81A4600F0A3FBFA
:1057A000002070BD360100203C0100202DE9F041B1
:1057B0001746D0F8D4224FF0FF3600EB8202D2F821
:1057C000C05265B33B7800244FF00208252B6FD000
:1057D0000FDC1A2B57D005DC13B3032B25D0122B6B
:1057E00017D127E01B2B2AD01E2B43D0232B10D1FF
:1057F0007AE05A2B5DD006DC282B70D02A2B6FD094
:105800002F2B06D193E09E2B78D0A82B6AD0AA2B01
:1058100069D02023052200F010FB85F8098023E0E1
:105820003A46BDE8F04100F02EBB3A46BDE8F041F3
:1058300000F0BFBA3A46BDE8F041FFF779BF95F8EE
:105840006222012A04D13A7902F00302022A71D0BD
:10585000397901F00300012812D0022807D0C8438B
:1058600080070DD0EC6021E03046BDE8F08185F87E
:105870006282F7E7387918B1012085F86202F1E712
:1058800085F86242EEE70846D2F8C4120426C968D9
:10589000884720B12E48817841F0800181703879A5
:1058A000042800D806463246294914E02046DCE7A1
:1058B0001FE00846D2F8C4120826C968884720B1FC
:1058C0002448C17841F08001C170387A082800D896
:1058D000064620493246284600F005FBE6E712E07E
:1058E0001BE00BE014E01DE03A46BDE8F04100F09B
:1058F0001DBA3A46BDE8F04100F08BB93A46BDE822
:10590000F04100F0C1B93A46BDE8F04100F0D2B82C
:105910003A46BDE8F04100F023B93A46BDE8F0410F
:1059200000F0F2BA3A46BDE8F04100F05DBB7A788B
:10593000920704D52423052200F07FFA94E7D5E9E5
:105940009B23FFF7DDFE00288EDB2046EC608CE712
:1059500044010020480100202DE9F0470646D0F818
:10596000D402884606EB80004FF0FF37D0F8C042E3
:10597000FCB1B4F86412D4F870524FF400724D4385
:10598000954200D31546B5FBF1F1D0F8C4028BB2B5
:1059900004F11001D0F810C0D4F86C2289464046BA
:1059A000E047002808DA112304224146304600F07F
:1059B00044FA3846BDE8F08710482B464A4601783D
:1059C000304601F0C3FDB4F86402D4F86C22B5FB94
:1059D000F0F1B5FBF0F01144C4F86C12D4F8701279
:1059E000081AC4F87002D4F83812A1EB0501C4F803
:1059F000381201D1032020720020DBE708010020CB
:105A00002DE9F0470746D0F8D402894607EB80001D
:105A10004FF0FF38D0F8C042FCB1B4F86412D4F8AB
:105A200070624FF400754E43AE4200D32E46B6FB73
:105A3000F1F1D0F8C4028BB204F11001D0F814C017
:105A4000D4F86C228A464846E047002808DA032347
:105A500004224946384600F0F0F94046BDE8F08798
:105A6000B4F86402D4F86C22B6FBF0F11144C4F827
:105A70006C12B6FBF0F1D4F87022531AC4F87032ED
:105A8000D4F83812A1EB0601C4F838120BD0434306
:105A9000AB4200D32B46064852460178384601F007
:105AA000ACFC0020DAE700213846FFF785FBF8E779
:105AB000090100202DE9F0410646D0F8D402154630
:105AC00006EB80008846D0F8C0424FF0FF3754B351
:105AD000217AC9BB94F81C12090630D594F86212D9
